{
  "contractName": "ICO",
  "abi": [
    {
      "inputs": [],
      "stateMutability": "nonpayable",
      "type": "constructor"
    },
    {
      "anonymous": false,
      "inputs": [
        {
          "indexed": true,
          "internalType": "address",
          "name": "owner",
          "type": "address"
        },
        {
          "indexed": true,
          "internalType": "address",
          "name": "spender",
          "type": "address"
        },
        {
          "indexed": false,
          "internalType": "uint256",
          "name": "value",
          "type": "uint256"
        }
      ],
      "name": "Approval",
      "type": "event"
    },
    {
      "anonymous": false,
      "inputs": [
        {
          "indexed": true,
          "internalType": "address",
          "name": "previousOwner",
          "type": "address"
        },
        {
          "indexed": true,
          "internalType": "address",
          "name": "newOwner",
          "type": "address"
        }
      ],
      "name": "OwnershipTransferred",
      "type": "event"
    },
    {
      "anonymous": false,
      "inputs": [
        {
          "indexed": true,
          "internalType": "address",
          "name": "from",
          "type": "address"
        },
        {
          "indexed": true,
          "internalType": "address",
          "name": "to",
          "type": "address"
        },
        {
          "indexed": false,
          "internalType": "uint256",
          "name": "value",
          "type": "uint256"
        }
      ],
      "name": "Transfer",
      "type": "event"
    },
    {
      "inputs": [
        {
          "internalType": "address",
          "name": "owner",
          "type": "address"
        },
        {
          "internalType": "address",
          "name": "spender",
          "type": "address"
        }
      ],
      "name": "allowance",
      "outputs": [
        {
          "internalType": "uint256",
          "name": "",
          "type": "uint256"
        }
      ],
      "stateMutability": "view",
      "type": "function"
    },
    {
      "inputs": [
        {
          "internalType": "address",
          "name": "spender",
          "type": "address"
        },
        {
          "internalType": "uint256",
          "name": "amount",
          "type": "uint256"
        }
      ],
      "name": "approve",
      "outputs": [
        {
          "internalType": "bool",
          "name": "",
          "type": "bool"
        }
      ],
      "stateMutability": "nonpayable",
      "type": "function"
    },
    {
      "inputs": [
        {
          "internalType": "address",
          "name": "account",
          "type": "address"
        }
      ],
      "name": "balanceOf",
      "outputs": [
        {
          "internalType": "uint256",
          "name": "",
          "type": "uint256"
        }
      ],
      "stateMutability": "view",
      "type": "function"
    },
    {
      "inputs": [],
      "name": "decimals",
      "outputs": [
        {
          "internalType": "uint8",
          "name": "",
          "type": "uint8"
        }
      ],
      "stateMutability": "view",
      "type": "function"
    },
    {
      "inputs": [
        {
          "internalType": "address",
          "name": "spender",
          "type": "address"
        },
        {
          "internalType": "uint256",
          "name": "subtractedValue",
          "type": "uint256"
        }
      ],
      "name": "decreaseAllowance",
      "outputs": [
        {
          "internalType": "bool",
          "name": "",
          "type": "bool"
        }
      ],
      "stateMutability": "nonpayable",
      "type": "function"
    },
    {
      "inputs": [
        {
          "internalType": "address",
          "name": "spender",
          "type": "address"
        },
        {
          "internalType": "uint256",
          "name": "addedValue",
          "type": "uint256"
        }
      ],
      "name": "increaseAllowance",
      "outputs": [
        {
          "internalType": "bool",
          "name": "",
          "type": "bool"
        }
      ],
      "stateMutability": "nonpayable",
      "type": "function"
    },
    {
      "inputs": [],
      "name": "name",
      "outputs": [
        {
          "internalType": "string",
          "name": "",
          "type": "string"
        }
      ],
      "stateMutability": "view",
      "type": "function"
    },
    {
      "inputs": [],
      "name": "owner",
      "outputs": [
        {
          "internalType": "address",
          "name": "",
          "type": "address"
        }
      ],
      "stateMutability": "view",
      "type": "function"
    },
    {
      "inputs": [],
      "name": "renounceOwnership",
      "outputs": [],
      "stateMutability": "nonpayable",
      "type": "function"
    },
    {
      "inputs": [],
      "name": "symbol",
      "outputs": [
        {
          "internalType": "string",
          "name": "",
          "type": "string"
        }
      ],
      "stateMutability": "view",
      "type": "function"
    },
    {
      "inputs": [],
      "name": "totalSupply",
      "outputs": [
        {
          "internalType": "uint256",
          "name": "",
          "type": "uint256"
        }
      ],
      "stateMutability": "view",
      "type": "function"
    },
    {
      "inputs": [
        {
          "internalType": "address",
          "name": "recipient",
          "type": "address"
        },
        {
          "internalType": "uint256",
          "name": "amount",
          "type": "uint256"
        }
      ],
      "name": "transfer",
      "outputs": [
        {
          "internalType": "bool",
          "name": "",
          "type": "bool"
        }
      ],
      "stateMutability": "nonpayable",
      "type": "function"
    },
    {
      "inputs": [
        {
          "internalType": "address",
          "name": "sender",
          "type": "address"
        },
        {
          "internalType": "address",
          "name": "recipient",
          "type": "address"
        },
        {
          "internalType": "uint256",
          "name": "amount",
          "type": "uint256"
        }
      ],
      "name": "transferFrom",
      "outputs": [
        {
          "internalType": "bool",
          "name": "",
          "type": "bool"
        }
      ],
      "stateMutability": "nonpayable",
      "type": "function"
    },
    {
      "inputs": [
        {
          "internalType": "address",
          "name": "newOwner",
          "type": "address"
        }
      ],
      "name": "transferOwnership",
      "outputs": [],
      "stateMutability": "nonpayable",
      "type": "function"
    },
    {
      "inputs": [
        {
          "internalType": "address",
          "name": "account",
          "type": "address"
        },
        {
          "internalType": "uint256",
          "name": "amount",
          "type": "uint256"
        }
      ],
      "name": "mint",
      "outputs": [
        {
          "internalType": "bool",
          "name": "sucess",
          "type": "bool"
        }
      ],
      "stateMutability": "nonpayable",
      "type": "function"
    },
    {
      "inputs": [
        {
          "internalType": "address",
          "name": "account",
          "type": "address"
        },
        {
          "internalType": "uint256",
          "name": "amount",
          "type": "uint256"
        }
      ],
      "name": "burn",
      "outputs": [
        {
          "internalType": "bool",
          "name": "success",
          "type": "bool"
        }
      ],
      "stateMutability": "nonpayable",
      "type": "function"
    },
    {
      "inputs": [],
      "name": "buy",
      "outputs": [
        {
          "internalType": "bool",
          "name": "sucess",
          "type": "bool"
        }
      ],
      "stateMutability": "payable",
      "type": "function"
    },
    {
      "inputs": [
        {
          "internalType": "uint256",
          "name": "amount",
          "type": "uint256"
        }
      ],
      "name": "withdraw",
      "outputs": [
        {
          "internalType": "bool",
          "name": "success",
          "type": "bool"
        }
      ],
      "stateMutability": "nonpayable",
      "type": "function"
    },
    {
      "inputs": [
        {
          "internalType": "address",
          "name": "account",
          "type": "address"
        }
      ],
      "name": "getBalance",
      "outputs": [
        {
          "internalType": "uint256",
          "name": "",
          "type": "uint256"
        }
      ],
      "stateMutability": "view",
      "type": "function"
    }
  ],
  "bytecode": "0x60806040523480156200001157600080fd5b506040518060400160405280600681526020017f5859434f494e00000000000000000000000000000000000000000000000000008152506040518060400160405280600481526020017f4d554b530000000000000000000000000000000000000000000000000000000081525081600390805190602001906200009692919062000374565b508060049080519060200190620000af92919062000374565b505050620000d2620000c66200011a60201b60201c565b6200012260201b60201c565b6200011433620000e7620001e860201b60201c565b60ff16600a620000f891906200057f565b620f4240620001089190620006bc565b620001f160201b60201c565b620007c8565b600033905090565b6000600560009054906101000a900473ffffffffffffffffffffffffffffffffffffffff16905081600560006101000a81548173ffffffffffffffffffffffffffffffffffffffff021916908373ffffffffffffffffffffffffffffffffffffffff1602179055508173ffffffffffffffffffffffffffffffffffffffff168173ffffffffffffffffffffffffffffffffffffffff167f8be0079c531659141344cd1fd0a4f28419497f9722a3daafe3b4186f6b6457e060405160405180910390a35050565b60006012905090565b600073ffffffffffffffffffffffffffffffffffffffff168273ffffffffffffffffffffffffffffffffffffffff16141562000264576040517f08c379a00000000000000000000000000000000000000000000000000000000081526004016200025b9062000477565b60405180910390fd5b62000278600083836200036a60201b60201c565b80600260008282546200028c9190620004c7565b92505081905550806000808473ffffffffffffffffffffffffffffffffffffffff1673ffffffffffffffffffffffffffffffffffffffff1681526020019081526020016000206000828254620002e39190620004c7565b925050819055508173ffffffffffffffffffffffffffffffffffffffff16600073ffffffffffffffffffffffffffffffffffffffff167fddf252ad1be2c89b69c2b068fc378daa952ba7f163c4a11628f55a4df523b3ef836040516200034a919062000499565b60405180910390a362000366600083836200036f60201b60201c565b5050565b505050565b505050565b828054620003829062000727565b90600052602060002090601f016020900481019282620003a65760008555620003f2565b82601f10620003c157805160ff1916838001178555620003f2565b82800160010185558215620003f2579182015b82811115620003f1578251825591602001919060010190620003d4565b5b50905062000401919062000405565b5090565b5b808211156200042057600081600090555060010162000406565b5090565b600062000433601f83620004b6565b91507f45524332303a206d696e7420746f20746865207a65726f2061646472657373006000830152602082019050919050565b62000471816200071d565b82525050565b60006020820190508181036000830152620004928162000424565b9050919050565b6000602082019050620004b0600083018462000466565b92915050565b600082825260208201905092915050565b6000620004d4826200071d565b9150620004e1836200071d565b9250827fffffffffffffffffffffffffffffffffffffffffffffffffffffffffffffffff038211156200051957620005186200075d565b5b828201905092915050565b6000808291508390505b600185111562000576578086048111156200054e576200054d6200075d565b5b60018516156200055e5780820291505b80810290506200056e85620007bb565b94506200052e565b94509492505050565b60006200058c826200071d565b915062000599836200071d565b9250620005c87fffffffffffffffffffffffffffffffffffffffffffffffffffffffffffffffff8484620005d0565b905092915050565b600082620005e25760019050620006b5565b81620005f25760009050620006b5565b81600181146200060b576002811462000616576200064c565b6001915050620006b5565b60ff8411156200062b576200062a6200075d565b5b8360020a9150848211156200064557620006446200075d565b5b50620006b5565b5060208310610133831016604e8410600b8410161715620006865782820a90508381111562000680576200067f6200075d565b5b620006b5565b62000695848484600162000524565b92509050818404811115620006af57620006ae6200075d565b5b81810290505b9392505050565b6000620006c9826200071d565b9150620006d6836200071d565b9250817fffffffffffffffffffffffffffffffffffffffffffffffffffffffffffffffff04831182151516156200071257620007116200075d565b5b828202905092915050565b6000819050919050565b600060028204905060018216806200074057607f821691505b602082108114156200075757620007566200078c565b5b50919050565b7f4e487b7100000000000000000000000000000000000000000000000000000000600052601160045260246000fd5b7f4e487b7100000000000000000000000000000000000000000000000000000000600052602260045260246000fd5b60008160011c9050919050565b61266780620007d86000396000f3fe6080604052600436106101145760003560e01c8063715018a6116100a0578063a6f2ae3a11610064578063a6f2ae3a146103ef578063a9059cbb1461040d578063dd62ed3e1461044a578063f2fde38b14610487578063f8b2cb4f146104b057610114565b8063715018a6146103085780638da5cb5b1461031f57806395d89b411461034a5780639dc29fac14610375578063a457c2d7146103b257610114565b80632e1a7d4d116100e75780632e1a7d4d146101e9578063313ce56714610226578063395093511461025157806340c10f191461028e57806370a08231146102cb57610114565b806306fdde0314610119578063095ea7b31461014457806318160ddd1461018157806323b872dd146101ac575b600080fd5b34801561012557600080fd5b5061012e6104ed565b60405161013b9190611fa4565b60405180910390f35b34801561015057600080fd5b5061016b600480360381019061016691906118a6565b61057f565b6040516101789190611f89565b60405180910390f35b34801561018d57600080fd5b5061019661059d565b6040516101a391906121c6565b60405180910390f35b3480156101b857600080fd5b506101d360048036038101906101ce9190611857565b6105a7565b6040516101e09190611f89565b60405180910390f35b3480156101f557600080fd5b50610210600480360381019061020b91906118e2565b61069f565b60405161021d9190611f89565b60405180910390f35b34801561023257600080fd5b5061023b6107b7565b60405161024891906121e1565b60405180910390f35b34801561025d57600080fd5b50610278600480360381019061027391906118a6565b6107c0565b6040516102859190611f89565b60405180910390f35b34801561029a57600080fd5b506102b560048036038101906102b091906118a6565b61086c565b6040516102c29190611f89565b60405180910390f35b3480156102d757600080fd5b506102f260048036038101906102ed91906117f2565b61097b565b6040516102ff91906121c6565b60405180910390f35b34801561031457600080fd5b5061031d6109c3565b005b34801561032b57600080fd5b50610334610a4b565b6040516103419190611f6e565b60405180910390f35b34801561035657600080fd5b5061035f610a75565b60405161036c9190611fa4565b60405180910390f35b34801561038157600080fd5b5061039c600480360381019061039791906118a6565b610b07565b6040516103a99190611f89565b60405180910390f35b3480156103be57600080fd5b506103d960048036038101906103d491906118a6565b610c16565b6040516103e69190611f89565b60405180910390f35b6103f7610d01565b6040516104049190611f89565b60405180910390f35b34801561041957600080fd5b50610434600480360381019061042f91906118a6565b610d9d565b6040516104419190611f89565b60405180910390f35b34801561045657600080fd5b50610471600480360381019061046c919061181b565b610dbb565b60405161047e91906121c6565b60405180910390f35b34801561049357600080fd5b506104ae60048036038101906104a991906117f2565b610e42565b005b3480156104bc57600080fd5b506104d760048036038101906104d291906117f2565b610f3a565b6040516104e491906121c6565b60405180910390f35b6060600380546104fc90612526565b80601f016020809104026020016040519081016040528092919081815260200182805461052890612526565b80156105755780601f1061054a57610100808354040283529160200191610575565b820191906000526020600020905b81548152906001019060200180831161055857829003601f168201915b5050505050905090565b600061059361058c610f6d565b8484610f75565b6001905092915050565b6000600254905090565b60006105b4848484611140565b6000600160008673ffffffffffffffffffffffffffffffffffffffff1673ffffffffffffffffffffffffffffffffffffffff16815260200190815260200160002060006105ff610f6d565b73ffffffffffffffffffffffffffffffffffffffff1673ffffffffffffffffffffffffffffffffffffffff1681526020019081526020016000205490508281101561067f576040517f08c379a000000000000000000000000000000000000000000000000000000000815260040161067690612086565b60405180910390fd5b6106938561068b610f6d565b858403610f75565b60019150509392505050565b60006106a9610f6d565b73ffffffffffffffffffffffffffffffffffffffff166106c7610a4b565b73ffffffffffffffffffffffffffffffffffffffff161461071d576040517f08c379a0000000000000000000000000000000000000000000000000000000008152600401610714906120a6565b60405180910390fd5b47821115610760576040517f08c379a000000000000000000000000000000000000000000000000000000000815260040161075790612006565b60405180910390fd5b610768610f6d565b73ffffffffffffffffffffffffffffffffffffffff166108fc839081150290604051600060405180830381858888f193505050501580156107ad573d6000803e3d6000fd5b5060019050919050565b60006012905090565b60006108626107cd610f6d565b8484600160006107db610f6d565b73ffffffffffffffffffffffffffffffffffffffff1673ffffffffffffffffffffffffffffffffffffffff16815260200190815260200160002060008873ffffffffffffffffffffffffffffffffffffffff1673ffffffffffffffffffffffffffffffffffffffff1681526020019081526020016000205461085d9190612218565b610f75565b6001905092915050565b6000610876610f6d565b73ffffffffffffffffffffffffffffffffffffffff16610894610a4b565b73ffffffffffffffffffffffffffffffffffffffff16146108ea576040517f08c379a00000000000000000000000000000000000000000000000000000000081526004016108e1906120a6565b60405180910390fd5b600073ffffffffffffffffffffffffffffffffffffffff168373ffffffffffffffffffffffffffffffffffffffff1614158015610928575060008214155b610967576040517f08c379a000000000000000000000000000000000000000000000000000000000815260040161095e906120e6565b60405180910390fd5b61097183836113c1565b6001905092915050565b60008060008373ffffffffffffffffffffffffffffffffffffffff1673ffffffffffffffffffffffffffffffffffffffff168152602001908152602001600020549050919050565b6109cb610f6d565b73ffffffffffffffffffffffffffffffffffffffff166109e9610a4b565b73ffffffffffffffffffffffffffffffffffffffff1614610a3f576040517f08c379a0000000000000000000000000000000000000000000000000000000008152600401610a36906120a6565b60405180910390fd5b610a496000611521565b565b6000600560009054906101000a900473ffffffffffffffffffffffffffffffffffffffff16905090565b606060048054610a8490612526565b80601f0160208091040260200160405190810160405280929190818152602001828054610ab090612526565b8015610afd5780601f10610ad257610100808354040283529160200191610afd565b820191906000526020600020905b815481529060010190602001808311610ae057829003601f168201915b5050505050905090565b6000610b11610f6d565b73ffffffffffffffffffffffffffffffffffffffff16610b2f610a4b565b73ffffffffffffffffffffffffffffffffffffffff1614610b85576040517f08c379a0000000000000000000000000000000000000000000000000000000008152600401610b7c906120a6565b60405180910390fd5b600073ffffffffffffffffffffffffffffffffffffffff168373ffffffffffffffffffffffffffffffffffffffff1614158015610bc3575060008214155b610c02576040517f08c379a0000000000000000000000000000000000000000000000000000000008152600401610bf990612146565b60405180910390fd5b610c0c83836115e7565b6001905092915050565b60008060016000610c25610f6d565b73ffffffffffffffffffffffffffffffffffffffff1673ffffffffffffffffffffffffffffffffffffffff16815260200190815260200160002060008573ffffffffffffffffffffffffffffffffffffffff1673ffffffffffffffffffffffffffffffffffffffff16815260200190815260200160002054905082811015610ce2576040517f08c379a0000000000000000000000000000000000000000000000000000000008152600401610cd990612186565b60405180910390fd5b610cf6610ced610f6d565b85858403610f75565b600191505092915050565b6000343373ffffffffffffffffffffffffffffffffffffffff163110158015610d2b575060003414155b610d6a576040517f08c379a0000000000000000000000000000000000000000000000000000000008152600401610d61906120c6565b60405180910390fd5b60006103e834610d7a9190612410565b9050610d95610d87610a4b565b610d8f610f6d565b83611140565b600191505090565b6000610db1610daa610f6d565b8484611140565b6001905092915050565b6000600160008473ffffffffffffffffffffffffffffffffffffffff1673ffffffffffffffffffffffffffffffffffffffff16815260200190815260200160002060008373ffffffffffffffffffffffffffffffffffffffff1673ffffffffffffffffffffffffffffffffffffffff16815260200190815260200160002054905092915050565b610e4a610f6d565b73ffffffffffffffffffffffffffffffffffffffff16610e68610a4b565b73ffffffffffffffffffffffffffffffffffffffff1614610ebe576040517f08c379a0000000000000000000000000000000000000000000000000000000008152600401610eb5906120a6565b60405180910390fd5b600073ffffffffffffffffffffffffffffffffffffffff168173ffffffffffffffffffffffffffffffffffffffff161415610f2e576040517f08c379a0000000000000000000000000000000000000000000000000000000008152600401610f2590612026565b60405180910390fd5b610f3781611521565b50565b6000610f446107b7565b60ff16600a610f5391906122f2565b610f5c8361097b565b610f66919061226e565b9050919050565b600033905090565b600073ffffffffffffffffffffffffffffffffffffffff168373ffffffffffffffffffffffffffffffffffffffff161415610fe5576040517f08c379a0000000000000000000000000000000000000000000000000000000008152600401610fdc90612166565b60405180910390fd5b600073ffffffffffffffffffffffffffffffffffffffff168273ffffffffffffffffffffffffffffffffffffffff161415611055576040517f08c379a000000000000000000000000000000000000000000000000000000000815260040161104c90612046565b60405180910390fd5b80600160008573ffffffffffffffffffffffffffffffffffffffff1673ffffffffffffffffffffffffffffffffffffffff16815260200190815260200160002060008473ffffffffffffffffffffffffffffffffffffffff1673ffffffffffffffffffffffffffffffffffffffff168152602001908152602001600020819055508173ffffffffffffffffffffffffffffffffffffffff168373ffffffffffffffffffffffffffffffffffffffff167f8c5be1e5ebec7d5bd14f71427d1e84f3dd0314c0f7b2291e5b200ac8c7c3b9258360405161113391906121c6565b60405180910390a3505050565b600073ffffffffffffffffffffffffffffffffffffffff168373ffffffffffffffffffffffffffffffffffffffff1614156111b0576040517f08c379a00000000000000000000000000000000000000000000000000000000081526004016111a790612126565b60405180910390fd5b600073ffffffffffffffffffffffffffffffffffffffff168273ffffffffffffffffffffffffffffffffffffffff161415611220576040517f08c379a000000000000000000000000000000000000000000000000000000000815260040161121790611fc6565b60405180910390fd5b61122b8383836117be565b60008060008573ffffffffffffffffffffffffffffffffffffffff1673ffffffffffffffffffffffffffffffffffffffff168152602001908152602001600020549050818110156112b1576040517f08c379a00000000000000000000000000000000000000000000000000000000081526004016112a890612066565b60405180910390fd5b8181036000808673ffffffffffffffffffffffffffffffffffffffff1673ffffffffffffffffffffffffffffffffffffffff16815260200190815260200160002081905550816000808573ffffffffffffffffffffffffffffffffffffffff1673ffffffffffffffffffffffffffffffffffffffff16815260200190815260200160002060008282546113449190612218565b925050819055508273ffffffffffffffffffffffffffffffffffffffff168473ffffffffffffffffffffffffffffffffffffffff167fddf252ad1be2c89b69c2b068fc378daa952ba7f163c4a11628f55a4df523b3ef846040516113a891906121c6565b60405180910390a36113bb8484846117c3565b50505050565b600073ffffffffffffffffffffffffffffffffffffffff168273ffffffffffffffffffffffffffffffffffffffff161415611431576040517f08c379a0000000000000000000000000000000000000000000000000000000008152600401611428906121a6565b60405180910390fd5b61143d600083836117be565b806002600082825461144f9190612218565b92505081905550806000808473ffffffffffffffffffffffffffffffffffffffff1673ffffffffffffffffffffffffffffffffffffffff16815260200190815260200160002060008282546114a49190612218565b925050819055508173ffffffffffffffffffffffffffffffffffffffff16600073ffffffffffffffffffffffffffffffffffffffff167fddf252ad1be2c89b69c2b068fc378daa952ba7f163c4a11628f55a4df523b3ef8360405161150991906121c6565b60405180910390a361151d600083836117c3565b5050565b6000600560009054906101000a900473ffffffffffffffffffffffffffffffffffffffff16905081600560006101000a81548173ffffffffffffffffffffffffffffffffffffffff021916908373ffffffffffffffffffffffffffffffffffffffff1602179055508173ffffffffffffffffffffffffffffffffffffffff168173ffffffffffffffffffffffffffffffffffffffff167f8be0079c531659141344cd1fd0a4f28419497f9722a3daafe3b4186f6b6457e060405160405180910390a35050565b600073ffffffffffffffffffffffffffffffffffffffff168273ffffffffffffffffffffffffffffffffffffffff161415611657576040517f08c379a000000000000000000000000000000000000000000000000000000000815260040161164e90612106565b60405180910390fd5b611663826000836117be565b60008060008473ffffffffffffffffffffffffffffffffffffffff1673ffffffffffffffffffffffffffffffffffffffff168152602001908152602001600020549050818110156116e9576040517f08c379a00000000000000000000000000000000000000000000000000000000081526004016116e090611fe6565b60405180910390fd5b8181036000808573ffffffffffffffffffffffffffffffffffffffff1673ffffffffffffffffffffffffffffffffffffffff168152602001908152602001600020819055508160026000828254611740919061246a565b92505081905550600073ffffffffffffffffffffffffffffffffffffffff168373ffffffffffffffffffffffffffffffffffffffff167fddf252ad1be2c89b69c2b068fc378daa952ba7f163c4a11628f55a4df523b3ef846040516117a591906121c6565b60405180910390a36117b9836000846117c3565b505050565b505050565b505050565b6000813590506117d781612603565b92915050565b6000813590506117ec8161261a565b92915050565b60006020828403121561180457600080fd5b6000611812848285016117c8565b91505092915050565b6000806040838503121561182e57600080fd5b600061183c858286016117c8565b925050602061184d858286016117c8565b9150509250929050565b60008060006060848603121561186c57600080fd5b600061187a868287016117c8565b935050602061188b868287016117c8565b925050604061189c868287016117dd565b9150509250925092565b600080604083850312156118b957600080fd5b60006118c7858286016117c8565b92505060206118d8858286016117dd565b9150509250929050565b6000602082840312156118f457600080fd5b6000611902848285016117dd565b91505092915050565b6119148161249e565b82525050565b611923816124b0565b82525050565b6000611934826121fc565b61193e8185612207565b935061194e8185602086016124f3565b611957816125e5565b840191505092915050565b600061196f602383612207565b91507f45524332303a207472616e7366657220746f20746865207a65726f206164647260008301527f65737300000000000000000000000000000000000000000000000000000000006020830152604082019050919050565b60006119d5602283612207565b91507f45524332303a206275726e20616d6f756e7420657863656564732062616c616e60008301527f63650000000000000000000000000000000000000000000000000000000000006020830152604082019050919050565b6000611a3b602483612207565b91507f49434f3a2066756e6374696f6e20776974686472617720696e76616c6964206960008301527f6e707574000000000000000000000000000000000000000000000000000000006020830152604082019050919050565b6000611aa1602683612207565b91507f4f776e61626c653a206e6577206f776e657220697320746865207a65726f206160008301527f64647265737300000000000000000000000000000000000000000000000000006020830152604082019050919050565b6000611b07602283612207565b91507f45524332303a20617070726f766520746f20746865207a65726f20616464726560008301527f73730000000000000000000000000000000000000000000000000000000000006020830152604082019050919050565b6000611b6d602683612207565b91507f45524332303a207472616e7366657220616d6f756e742065786365656473206260008301527f616c616e636500000000000000000000000000000000000000000000000000006020830152604082019050919050565b6000611bd3602883612207565b91507f45524332303a207472616e7366657220616d6f756e742065786365656473206160008301527f6c6c6f77616e63650000000000000000000000000000000000000000000000006020830152604082019050919050565b6000611c39602083612207565b91507f4f776e61626c653a2063616c6c6572206973206e6f7420746865206f776e65726000830152602082019050919050565b6000611c79601f83612207565b91507f49434f3a2066756e6374696f6e2062757920696e76616c696420696e707574006000830152602082019050919050565b6000611cb9602283612207565b91507f45524332303a2066756e6374696f6e206d696e7420696e76616c696420696e7060008301527f75740000000000000000000000000000000000000000000000000000000000006020830152604082019050919050565b6000611d1f602183612207565b91507f45524332303a206275726e2066726f6d20746865207a65726f2061646472657360008301527f73000000000000000000000000000000000000000000000000000000000000006020830152604082019050919050565b6000611d85602583612207565b91507f45524332303a207472616e736665722066726f6d20746865207a65726f20616460008301527f64726573730000000000000000000000000000000000000000000000000000006020830152604082019050919050565b6000611deb602283612207565b91507f45524332303a2066756e6374696f6e206275726e20696e76616c696420696e7060008301527f75740000000000000000000000000000000000000000000000000000000000006020830152604082019050919050565b6000611e51602483612207565b91507f45524332303a20617070726f76652066726f6d20746865207a65726f2061646460008301527f72657373000000000000000000000000000000000000000000000000000000006020830152604082019050919050565b6000611eb7602583612207565b91507f45524332303a2064656372656173656420616c6c6f77616e63652062656c6f7760008301527f207a65726f0000000000000000000000000000000000000000000000000000006020830152604082019050919050565b6000611f1d601f83612207565b91507f45524332303a206d696e7420746f20746865207a65726f2061646472657373006000830152602082019050919050565b611f59816124dc565b82525050565b611f68816124e6565b82525050565b6000602082019050611f83600083018461190b565b92915050565b6000602082019050611f9e600083018461191a565b92915050565b60006020820190508181036000830152611fbe8184611929565b905092915050565b60006020820190508181036000830152611fdf81611962565b9050919050565b60006020820190508181036000830152611fff816119c8565b9050919050565b6000602082019050818103600083015261201f81611a2e565b9050919050565b6000602082019050818103600083015261203f81611a94565b9050919050565b6000602082019050818103600083015261205f81611afa565b9050919050565b6000602082019050818103600083015261207f81611b60565b9050919050565b6000602082019050818103600083015261209f81611bc6565b9050919050565b600060208201905081810360008301526120bf81611c2c565b9050919050565b600060208201905081810360008301526120df81611c6c565b9050919050565b600060208201905081810360008301526120ff81611cac565b9050919050565b6000602082019050818103600083015261211f81611d12565b9050919050565b6000602082019050818103600083015261213f81611d78565b9050919050565b6000602082019050818103600083015261215f81611dde565b9050919050565b6000602082019050818103600083015261217f81611e44565b9050919050565b6000602082019050818103600083015261219f81611eaa565b9050919050565b600060208201905081810360008301526121bf81611f10565b9050919050565b60006020820190506121db6000830184611f50565b92915050565b60006020820190506121f66000830184611f5f565b92915050565b600081519050919050565b600082825260208201905092915050565b6000612223826124dc565b915061222e836124dc565b9250827fffffffffffffffffffffffffffffffffffffffffffffffffffffffffffffffff0382111561226357612262612558565b5b828201905092915050565b6000612279826124dc565b9150612284836124dc565b92508261229457612293612587565b5b828204905092915050565b6000808291508390505b60018511156122e9578086048111156122c5576122c4612558565b5b60018516156122d45780820291505b80810290506122e2856125f6565b94506122a9565b94509492505050565b60006122fd826124dc565b9150612308836124dc565b92506123357fffffffffffffffffffffffffffffffffffffffffffffffffffffffffffffffff848461233d565b905092915050565b60008261234d5760019050612409565b8161235b5760009050612409565b8160018114612371576002811461237b576123aa565b6001915050612409565b60ff84111561238d5761238c612558565b5b8360020a9150848211156123a4576123a3612558565b5b50612409565b5060208310610133831016604e8410600b84101617156123df5782820a9050838111156123da576123d9612558565b5b612409565b6123ec848484600161229f565b9250905081840481111561240357612402612558565b5b81810290505b9392505050565b600061241b826124dc565b9150612426836124dc565b9250817fffffffffffffffffffffffffffffffffffffffffffffffffffffffffffffffff048311821515161561245f5761245e612558565b5b828202905092915050565b6000612475826124dc565b9150612480836124dc565b92508282101561249357612492612558565b5b828203905092915050565b60006124a9826124bc565b9050919050565b60008115159050919050565b600073ffffffffffffffffffffffffffffffffffffffff82169050919050565b6000819050919050565b600060ff82169050919050565b60005b838110156125115780820151818401526020810190506124f6565b83811115612520576000848401525b50505050565b6000600282049050600182168061253e57607f821691505b60208210811415612552576125516125b6565b5b50919050565b7f4e487b7100000000000000000000000000000000000000000000000000000000600052601160045260246000fd5b7f4e487b7100000000000000000000000000000000000000000000000000000000600052601260045260246000fd5b7f4e487b7100000000000000000000000000000000000000000000000000000000600052602260045260246000fd5b6000601f19601f8301169050919050565b60008160011c9050919050565b61260c8161249e565b811461261757600080fd5b50565b612623816124dc565b811461262e57600080fd5b5056fea2646970667358221220d930cb4c40d4f0a5030f8c28ee14f488494e6ff2ef0d0134ee0f2d4098a502c464736f6c63430008000033",
  "immutableReferences": {},
  "source": "// SPDX-License-Identifier: MIT\n//\npragma solidity >=0.6.0 <=0.8.0;\n\n//\nimport \"../node_modules/@openzeppelin/contracts/token/ERC20/ERC20.sol\";\nimport \"../node_modules/@openzeppelin/contracts/access/Ownable.sol\";\n\n//ICOERC20,Ownable\ncontract ICO is ERC20, Ownable {\n\n    //ERC20\n    constructor() ERC20(\"XYCOIN\", \"MUKS\") {\n      _mint(msg.sender, 1000000*(10**uint256(decimals())));\n    }\n    \n    function mint(address account, uint256 amount) public onlyOwner returns (bool sucess) {\n      require(account != address(0) && amount != uint256(0), \"ERC20: function mint invalid input\");\n      _mint(account, amount);\n      return true;\n    }\n\n    //ERC20\n    function burn(address account, uint256 amount) public onlyOwner returns (bool success) {\n      require(account != address(0) && amount != uint256(0), \"ERC20: function burn invalid input\");\n      _burn(account, amount);\n      return true;\n    }\n\n    //ETH 1ether:1000coin\n    function buy() public payable returns(bool sucess) {\n      require(msg.sender.balance >= msg.value && msg.value != 0 ether, \"ICO: function buy invalid input\");\n      uint256 amount = msg.value * 1000;\n      _transfer(owner(), _msgSender(), amount);\n      return true;\n    }\n\n    //ether\n    function withdraw(uint256 amount) public onlyOwner returns (bool success) {\n      require(amount <= address(this).balance, \"ICO: function withdraw invalid input\");\n      payable(_msgSender()).transfer(amount);\n      return true;\n    }\n\n    function getBalance(address account) public view returns (uint256) {\n      return balanceOf(account)/(10**uint256(decimals()));\n    }\n}\n",
  "sourcePath": "/Users/yuexiao/xiaoyue1/project/-ico-/truffle-init/contracts/ICO.sol",
  "compiler": {
    "name": "solc",
    "version": "0.8.0+commit.c7dfd78e.Emscripten.clang"
  },
  "schemaVersion": "3.4.3",
  "updatedAt": "2021-10-07T09:06:42.139Z",
  "devdoc": {
    "kind": "dev",
    "methods": {
      "allowance(address,address)": {
        "details": "See {IERC20-allowance}."
      },
      "approve(address,uint256)": {
        "details": "See {IERC20-approve}. Requirements: - `spender` cannot be the zero address."
      },
      "balanceOf(address)": {
        "details": "See {IERC20-balanceOf}."
      },
      "decimals()": {
        "details": "Returns the number of decimals used to get its user representation. For example, if `decimals` equals `2`, a balance of `505` tokens should be displayed to a user as `5.05` (`505 / 10 ** 2`). Tokens usually opt for a value of 18, imitating the relationship between Ether and Wei. This is the value {ERC20} uses, unless this function is overridden; NOTE: This information is only used for _display_ purposes: it in no way affects any of the arithmetic of the contract, including {IERC20-balanceOf} and {IERC20-transfer}."
      },
      "decreaseAllowance(address,uint256)": {
        "details": "Atomically decreases the allowance granted to `spender` by the caller. This is an alternative to {approve} that can be used as a mitigation for problems described in {IERC20-approve}. Emits an {Approval} event indicating the updated allowance. Requirements: - `spender` cannot be the zero address. - `spender` must have allowance for the caller of at least `subtractedValue`."
      },
      "increaseAllowance(address,uint256)": {
        "details": "Atomically increases the allowance granted to `spender` by the caller. This is an alternative to {approve} that can be used as a mitigation for problems described in {IERC20-approve}. Emits an {Approval} event indicating the updated allowance. Requirements: - `spender` cannot be the zero address."
      },
      "name()": {
        "details": "Returns the name of the token."
      },
      "owner()": {
        "details": "Returns the address of the current owner."
      },
      "renounceOwnership()": {
        "details": "Leaves the contract without owner. It will not be possible to call `onlyOwner` functions anymore. Can only be called by the current owner. NOTE: Renouncing ownership will leave the contract without an owner, thereby removing any functionality that is only available to the owner."
      },
      "symbol()": {
        "details": "Returns the symbol of the token, usually a shorter version of the name."
      },
      "totalSupply()": {
        "details": "See {IERC20-totalSupply}."
      },
      "transfer(address,uint256)": {
        "details": "See {IERC20-transfer}. Requirements: - `recipient` cannot be the zero address. - the caller must have a balance of at least `amount`."
      },
      "transferFrom(address,address,uint256)": {
        "details": "See {IERC20-transferFrom}. Emits an {Approval} event indicating the updated allowance. This is not required by the EIP. See the note at the beginning of {ERC20}. Requirements: - `sender` and `recipient` cannot be the zero address. - `sender` must have a balance of at least `amount`. - the caller must have allowance for ``sender``'s tokens of at least `amount`."
      },
      "transferOwnership(address)": {
        "details": "Transfers ownership of the contract to a new account (`newOwner`). Can only be called by the current owner."
      }
    },
    "version": 1
  },
  "userdoc": {
    "kind": "user",
    "methods": {},
    "version": 1
  }
}