{
  "contractName": "ICO",
  "abi": [
    {
      "inputs": [],
      "stateMutability": "nonpayable",
      "type": "constructor"
    },
    {
      "anonymous": false,
      "inputs": [
        {
          "indexed": true,
          "internalType": "address",
          "name": "owner",
          "type": "address"
        },
        {
          "indexed": true,
          "internalType": "address",
          "name": "spender",
          "type": "address"
        },
        {
          "indexed": false,
          "internalType": "uint256",
          "name": "value",
          "type": "uint256"
        }
      ],
      "name": "Approval",
      "type": "event"
    },
    {
      "anonymous": false,
      "inputs": [
        {
          "indexed": true,
          "internalType": "address",
          "name": "previousOwner",
          "type": "address"
        },
        {
          "indexed": true,
          "internalType": "address",
          "name": "newOwner",
          "type": "address"
        }
      ],
      "name": "OwnershipTransferred",
      "type": "event"
    },
    {
      "anonymous": false,
      "inputs": [
        {
          "indexed": true,
          "internalType": "address",
          "name": "from",
          "type": "address"
        },
        {
          "indexed": true,
          "internalType": "address",
          "name": "to",
          "type": "address"
        },
        {
          "indexed": false,
          "internalType": "uint256",
          "name": "value",
          "type": "uint256"
        }
      ],
      "name": "Transfer",
      "type": "event"
    },
    {
      "inputs": [
        {
          "internalType": "address",
          "name": "owner",
          "type": "address"
        },
        {
          "internalType": "address",
          "name": "spender",
          "type": "address"
        }
      ],
      "name": "allowance",
      "outputs": [
        {
          "internalType": "uint256",
          "name": "",
          "type": "uint256"
        }
      ],
      "stateMutability": "view",
      "type": "function",
      "constant": true
    },
    {
      "inputs": [
        {
          "internalType": "address",
          "name": "spender",
          "type": "address"
        },
        {
          "internalType": "uint256",
          "name": "amount",
          "type": "uint256"
        }
      ],
      "name": "approve",
      "outputs": [
        {
          "internalType": "bool",
          "name": "",
          "type": "bool"
        }
      ],
      "stateMutability": "nonpayable",
      "type": "function"
    },
    {
      "inputs": [
        {
          "internalType": "address",
          "name": "account",
          "type": "address"
        }
      ],
      "name": "balanceOf",
      "outputs": [
        {
          "internalType": "uint256",
          "name": "",
          "type": "uint256"
        }
      ],
      "stateMutability": "view",
      "type": "function",
      "constant": true
    },
    {
      "inputs": [],
      "name": "decimals",
      "outputs": [
        {
          "internalType": "uint8",
          "name": "",
          "type": "uint8"
        }
      ],
      "stateMutability": "view",
      "type": "function",
      "constant": true
    },
    {
      "inputs": [
        {
          "internalType": "address",
          "name": "spender",
          "type": "address"
        },
        {
          "internalType": "uint256",
          "name": "subtractedValue",
          "type": "uint256"
        }
      ],
      "name": "decreaseAllowance",
      "outputs": [
        {
          "internalType": "bool",
          "name": "",
          "type": "bool"
        }
      ],
      "stateMutability": "nonpayable",
      "type": "function"
    },
    {
      "inputs": [
        {
          "internalType": "address",
          "name": "spender",
          "type": "address"
        },
        {
          "internalType": "uint256",
          "name": "addedValue",
          "type": "uint256"
        }
      ],
      "name": "increaseAllowance",
      "outputs": [
        {
          "internalType": "bool",
          "name": "",
          "type": "bool"
        }
      ],
      "stateMutability": "nonpayable",
      "type": "function"
    },
    {
      "inputs": [],
      "name": "name",
      "outputs": [
        {
          "internalType": "string",
          "name": "",
          "type": "string"
        }
      ],
      "stateMutability": "view",
      "type": "function",
      "constant": true
    },
    {
      "inputs": [],
      "name": "owner",
      "outputs": [
        {
          "internalType": "address",
          "name": "",
          "type": "address"
        }
      ],
      "stateMutability": "view",
      "type": "function",
      "constant": true
    },
    {
      "inputs": [],
      "name": "renounceOwnership",
      "outputs": [],
      "stateMutability": "nonpayable",
      "type": "function"
    },
    {
      "inputs": [],
      "name": "symbol",
      "outputs": [
        {
          "internalType": "string",
          "name": "",
          "type": "string"
        }
      ],
      "stateMutability": "view",
      "type": "function",
      "constant": true
    },
    {
      "inputs": [],
      "name": "totalSupply",
      "outputs": [
        {
          "internalType": "uint256",
          "name": "",
          "type": "uint256"
        }
      ],
      "stateMutability": "view",
      "type": "function",
      "constant": true
    },
    {
      "inputs": [
        {
          "internalType": "address",
          "name": "recipient",
          "type": "address"
        },
        {
          "internalType": "uint256",
          "name": "amount",
          "type": "uint256"
        }
      ],
      "name": "transfer",
      "outputs": [
        {
          "internalType": "bool",
          "name": "",
          "type": "bool"
        }
      ],
      "stateMutability": "nonpayable",
      "type": "function"
    },
    {
      "inputs": [
        {
          "internalType": "address",
          "name": "sender",
          "type": "address"
        },
        {
          "internalType": "address",
          "name": "recipient",
          "type": "address"
        },
        {
          "internalType": "uint256",
          "name": "amount",
          "type": "uint256"
        }
      ],
      "name": "transferFrom",
      "outputs": [
        {
          "internalType": "bool",
          "name": "",
          "type": "bool"
        }
      ],
      "stateMutability": "nonpayable",
      "type": "function"
    },
    {
      "inputs": [
        {
          "internalType": "address",
          "name": "newOwner",
          "type": "address"
        }
      ],
      "name": "transferOwnership",
      "outputs": [],
      "stateMutability": "nonpayable",
      "type": "function"
    },
    {
      "inputs": [
        {
          "internalType": "address",
          "name": "account",
          "type": "address"
        },
        {
          "internalType": "uint256",
          "name": "amount",
          "type": "uint256"
        }
      ],
      "name": "mint",
      "outputs": [
        {
          "internalType": "bool",
          "name": "sucess",
          "type": "bool"
        }
      ],
      "stateMutability": "nonpayable",
      "type": "function"
    },
    {
      "inputs": [
        {
          "internalType": "address",
          "name": "account",
          "type": "address"
        },
        {
          "internalType": "uint256",
          "name": "amount",
          "type": "uint256"
        }
      ],
      "name": "burn",
      "outputs": [
        {
          "internalType": "bool",
          "name": "success",
          "type": "bool"
        }
      ],
      "stateMutability": "nonpayable",
      "type": "function"
    },
    {
      "inputs": [],
      "name": "buy",
      "outputs": [
        {
          "internalType": "bool",
          "name": "sucess",
          "type": "bool"
        }
      ],
      "stateMutability": "payable",
      "type": "function",
      "payable": true
    },
    {
      "inputs": [
        {
          "internalType": "uint256",
          "name": "amount",
          "type": "uint256"
        }
      ],
      "name": "withdraw",
      "outputs": [
        {
          "internalType": "bool",
          "name": "success",
          "type": "bool"
        }
      ],
      "stateMutability": "nonpayable",
      "type": "function"
    }
  ],
  "bytecode": "0x60806040523480156200001157600080fd5b506040518060400160405280600681526020017f5859434f494e00000000000000000000000000000000000000000000000000008152506040518060400160405280600281526020017f585900000000000000000000000000000000000000000000000000000000000081525081600390805190602001906200009692919062000374565b508060049080519060200190620000af92919062000374565b505050620000d2620000c66200011a60201b60201c565b6200012260201b60201c565b6200011433620000e7620001e860201b60201c565b60ff16600a620000f891906200057f565b620f4240620001089190620006bc565b620001f160201b60201c565b620007c8565b600033905090565b6000600560009054906101000a900473ffffffffffffffffffffffffffffffffffffffff16905081600560006101000a81548173ffffffffffffffffffffffffffffffffffffffff021916908373ffffffffffffffffffffffffffffffffffffffff1602179055508173ffffffffffffffffffffffffffffffffffffffff168173ffffffffffffffffffffffffffffffffffffffff167f8be0079c531659141344cd1fd0a4f28419497f9722a3daafe3b4186f6b6457e060405160405180910390a35050565b60006012905090565b600073ffffffffffffffffffffffffffffffffffffffff168273ffffffffffffffffffffffffffffffffffffffff16141562000264576040517f08c379a00000000000000000000000000000000000000000000000000000000081526004016200025b9062000477565b60405180910390fd5b62000278600083836200036a60201b60201c565b80600260008282546200028c9190620004c7565b92505081905550806000808473ffffffffffffffffffffffffffffffffffffffff1673ffffffffffffffffffffffffffffffffffffffff1681526020019081526020016000206000828254620002e39190620004c7565b925050819055508173ffffffffffffffffffffffffffffffffffffffff16600073ffffffffffffffffffffffffffffffffffffffff167fddf252ad1be2c89b69c2b068fc378daa952ba7f163c4a11628f55a4df523b3ef836040516200034a919062000499565b60405180910390a362000366600083836200036f60201b60201c565b5050565b505050565b505050565b828054620003829062000727565b90600052602060002090601f016020900481019282620003a65760008555620003f2565b82601f10620003c157805160ff1916838001178555620003f2565b82800160010185558215620003f2579182015b82811115620003f1578251825591602001919060010190620003d4565b5b50905062000401919062000405565b5090565b5b808211156200042057600081600090555060010162000406565b5090565b600062000433601f83620004b6565b91507f45524332303a206d696e7420746f20746865207a65726f2061646472657373006000830152602082019050919050565b62000471816200071d565b82525050565b60006020820190508181036000830152620004928162000424565b9050919050565b6000602082019050620004b0600083018462000466565b92915050565b600082825260208201905092915050565b6000620004d4826200071d565b9150620004e1836200071d565b9250827fffffffffffffffffffffffffffffffffffffffffffffffffffffffffffffffff038211156200051957620005186200075d565b5b828201905092915050565b6000808291508390505b600185111562000576578086048111156200054e576200054d6200075d565b5b60018516156200055e5780820291505b80810290506200056e85620007bb565b94506200052e565b94509492505050565b60006200058c826200071d565b915062000599836200071d565b9250620005c87fffffffffffffffffffffffffffffffffffffffffffffffffffffffffffffffff8484620005d0565b905092915050565b600082620005e25760019050620006b5565b81620005f25760009050620006b5565b81600181146200060b576002811462000616576200064c565b6001915050620006b5565b60ff8411156200062b576200062a6200075d565b5b8360020a9150848211156200064557620006446200075d565b5b50620006b5565b5060208310610133831016604e8410600b8410161715620006865782820a90508381111562000680576200067f6200075d565b5b620006b5565b62000695848484600162000524565b92509050818404811115620006af57620006ae6200075d565b5b81810290505b9392505050565b6000620006c9826200071d565b9150620006d6836200071d565b9250817fffffffffffffffffffffffffffffffffffffffffffffffffffffffffffffffff04831182151516156200071257620007116200075d565b5b828202905092915050565b6000819050919050565b600060028204905060018216806200074057607f821691505b602082108114156200075757620007566200078c565b5b50919050565b7f4e487b7100000000000000000000000000000000000000000000000000000000600052601160045260246000fd5b7f4e487b7100000000000000000000000000000000000000000000000000000000600052602260045260246000fd5b60008160011c9050919050565b61240e80620007d86000396000f3fe6080604052600436106101095760003560e01c8063715018a611610095578063a457c2d711610064578063a457c2d7146103a7578063a6f2ae3a146103e4578063a9059cbb14610402578063dd62ed3e1461043f578063f2fde38b1461047c57610109565b8063715018a6146102fd5780638da5cb5b1461031457806395d89b411461033f5780639dc29fac1461036a57610109565b80632e1a7d4d116100dc5780632e1a7d4d146101de578063313ce5671461021b578063395093511461024657806340c10f191461028357806370a08231146102c057610109565b806306fdde031461010e578063095ea7b31461013957806318160ddd1461017657806323b872dd146101a1575b600080fd5b34801561011a57600080fd5b506101236104a5565b6040516101309190611f29565b60405180910390f35b34801561014557600080fd5b50610160600480360381019061015b919061182b565b610537565b60405161016d9190611f0e565b60405180910390f35b34801561018257600080fd5b5061018b610555565b604051610198919061214b565b60405180910390f35b3480156101ad57600080fd5b506101c860048036038101906101c391906117dc565b61055f565b6040516101d59190611f0e565b60405180910390f35b3480156101ea57600080fd5b5061020560048036038101906102009190611867565b610657565b6040516102129190611f0e565b60405180910390f35b34801561022757600080fd5b5061023061076f565b60405161023d9190612166565b60405180910390f35b34801561025257600080fd5b5061026d6004803603810190610268919061182b565b610778565b60405161027a9190611f0e565b60405180910390f35b34801561028f57600080fd5b506102aa60048036038101906102a5919061182b565b610824565b6040516102b79190611f0e565b60405180910390f35b3480156102cc57600080fd5b506102e760048036038101906102e29190611777565b610933565b6040516102f4919061214b565b60405180910390f35b34801561030957600080fd5b5061031261097b565b005b34801561032057600080fd5b50610329610a03565b6040516103369190611ef3565b60405180910390f35b34801561034b57600080fd5b50610354610a2d565b6040516103619190611f29565b60405180910390f35b34801561037657600080fd5b50610391600480360381019061038c919061182b565b610abf565b60405161039e9190611f0e565b60405180910390f35b3480156103b357600080fd5b506103ce60048036038101906103c9919061182b565b610bce565b6040516103db9190611f0e565b60405180910390f35b6103ec610cb9565b6040516103f99190611f0e565b60405180910390f35b34801561040e57600080fd5b506104296004803603810190610424919061182b565b610d55565b6040516104369190611f0e565b60405180910390f35b34801561044b57600080fd5b50610466600480360381019061046191906117a0565b610d73565b604051610473919061214b565b60405180910390f35b34801561048857600080fd5b506104a3600480360381019061049e9190611777565b610dfa565b005b6060600380546104b490612309565b80601f01602080910402602001604051908101604052809291908181526020018280546104e090612309565b801561052d5780601f106105025761010080835404028352916020019161052d565b820191906000526020600020905b81548152906001019060200180831161051057829003601f168201915b5050505050905090565b600061054b610544610ef2565b8484610efa565b6001905092915050565b6000600254905090565b600061056c8484846110c5565b6000600160008673ffffffffffffffffffffffffffffffffffffffff1673ffffffffffffffffffffffffffffffffffffffff16815260200190815260200160002060006105b7610ef2565b73ffffffffffffffffffffffffffffffffffffffff1673ffffffffffffffffffffffffffffffffffffffff16815260200190815260200160002054905082811015610637576040517f08c379a000000000000000000000000000000000000000000000000000000000815260040161062e9061200b565b60405180910390fd5b61064b85610643610ef2565b858403610efa565b60019150509392505050565b6000610661610ef2565b73ffffffffffffffffffffffffffffffffffffffff1661067f610a03565b73ffffffffffffffffffffffffffffffffffffffff16146106d5576040517f08c379a00000000000000000000000000000000000000000000000000000000081526004016106cc9061202b565b60405180910390fd5b47821115610718576040517f08c379a000000000000000000000000000000000000000000000000000000000815260040161070f90611f8b565b60405180910390fd5b610720610ef2565b73ffffffffffffffffffffffffffffffffffffffff166108fc839081150290604051600060405180830381858888f19350505050158015610765573d6000803e3d6000fd5b5060019050919050565b60006012905090565b600061081a610785610ef2565b848460016000610793610ef2565b73ffffffffffffffffffffffffffffffffffffffff1673ffffffffffffffffffffffffffffffffffffffff16815260200190815260200160002060008873ffffffffffffffffffffffffffffffffffffffff1673ffffffffffffffffffffffffffffffffffffffff16815260200190815260200160002054610815919061219d565b610efa565b6001905092915050565b600061082e610ef2565b73ffffffffffffffffffffffffffffffffffffffff1661084c610a03565b73ffffffffffffffffffffffffffffffffffffffff16146108a2576040517f08c379a00000000000000000000000000000000000000000000000000000000081526004016108999061202b565b60405180910390fd5b600073ffffffffffffffffffffffffffffffffffffffff168373ffffffffffffffffffffffffffffffffffffffff16141580156108e0575060008214155b61091f576040517f08c379a00000000000000000000000000000000000000000000000000000000081526004016109169061206b565b60405180910390fd5b6109298383611346565b6001905092915050565b60008060008373ffffffffffffffffffffffffffffffffffffffff1673ffffffffffffffffffffffffffffffffffffffff168152602001908152602001600020549050919050565b610983610ef2565b73ffffffffffffffffffffffffffffffffffffffff166109a1610a03565b73ffffffffffffffffffffffffffffffffffffffff16146109f7576040517f08c379a00000000000000000000000000000000000000000000000000000000081526004016109ee9061202b565b60405180910390fd5b610a0160006114a6565b565b6000600560009054906101000a900473ffffffffffffffffffffffffffffffffffffffff16905090565b606060048054610a3c90612309565b80601f0160208091040260200160405190810160405280929190818152602001828054610a6890612309565b8015610ab55780601f10610a8a57610100808354040283529160200191610ab5565b820191906000526020600020905b815481529060010190602001808311610a9857829003601f168201915b5050505050905090565b6000610ac9610ef2565b73ffffffffffffffffffffffffffffffffffffffff16610ae7610a03565b73ffffffffffffffffffffffffffffffffffffffff1614610b3d576040517f08c379a0000000000000000000000000000000000000000000000000000000008152600401610b349061202b565b60405180910390fd5b600073ffffffffffffffffffffffffffffffffffffffff168373ffffffffffffffffffffffffffffffffffffffff1614158015610b7b575060008214155b610bba576040517f08c379a0000000000000000000000000000000000000000000000000000000008152600401610bb1906120cb565b60405180910390fd5b610bc4838361156c565b6001905092915050565b60008060016000610bdd610ef2565b73ffffffffffffffffffffffffffffffffffffffff1673ffffffffffffffffffffffffffffffffffffffff16815260200190815260200160002060008573ffffffffffffffffffffffffffffffffffffffff1673ffffffffffffffffffffffffffffffffffffffff16815260200190815260200160002054905082811015610c9a576040517f08c379a0000000000000000000000000000000000000000000000000000000008152600401610c919061210b565b60405180910390fd5b610cae610ca5610ef2565b85858403610efa565b600191505092915050565b6000343373ffffffffffffffffffffffffffffffffffffffff163110158015610ce3575060003414155b610d22576040517f08c379a0000000000000000000000000000000000000000000000000000000008152600401610d199061204b565b60405180910390fd5b60006103e834610d3291906121f3565b9050610d4d610d3f610a03565b610d47610ef2565b836110c5565b600191505090565b6000610d69610d62610ef2565b84846110c5565b6001905092915050565b6000600160008473ffffffffffffffffffffffffffffffffffffffff1673ffffffffffffffffffffffffffffffffffffffff16815260200190815260200160002060008373ffffffffffffffffffffffffffffffffffffffff1673ffffffffffffffffffffffffffffffffffffffff16815260200190815260200160002054905092915050565b610e02610ef2565b73ffffffffffffffffffffffffffffffffffffffff16610e20610a03565b73ffffffffffffffffffffffffffffffffffffffff1614610e76576040517f08c379a0000000000000000000000000000000000000000000000000000000008152600401610e6d9061202b565b60405180910390fd5b600073ffffffffffffffffffffffffffffffffffffffff168173ffffffffffffffffffffffffffffffffffffffff161415610ee6576040517f08c379a0000000000000000000000000000000000000000000000000000000008152600401610edd90611fab565b60405180910390fd5b610eef816114a6565b50565b600033905090565b600073ffffffffffffffffffffffffffffffffffffffff168373ffffffffffffffffffffffffffffffffffffffff161415610f6a576040517f08c379a0000000000000000000000000000000000000000000000000000000008152600401610f61906120eb565b60405180910390fd5b600073ffffffffffffffffffffffffffffffffffffffff168273ffffffffffffffffffffffffffffffffffffffff161415610fda576040517f08c379a0000000000000000000000000000000000000000000000000000000008152600401610fd190611fcb565b60405180910390fd5b80600160008573ffffffffffffffffffffffffffffffffffffffff1673ffffffffffffffffffffffffffffffffffffffff16815260200190815260200160002060008473ffffffffffffffffffffffffffffffffffffffff1673ffffffffffffffffffffffffffffffffffffffff168152602001908152602001600020819055508173ffffffffffffffffffffffffffffffffffffffff168373ffffffffffffffffffffffffffffffffffffffff167f8c5be1e5ebec7d5bd14f71427d1e84f3dd0314c0f7b2291e5b200ac8c7c3b925836040516110b8919061214b565b60405180910390a3505050565b600073ffffffffffffffffffffffffffffffffffffffff168373ffffffffffffffffffffffffffffffffffffffff161415611135576040517f08c379a000000000000000000000000000000000000000000000000000000000815260040161112c906120ab565b60405180910390fd5b600073ffffffffffffffffffffffffffffffffffffffff168273ffffffffffffffffffffffffffffffffffffffff1614156111a5576040517f08c379a000000000000000000000000000000000000000000000000000000000815260040161119c90611f4b565b60405180910390fd5b6111b0838383611743565b60008060008573ffffffffffffffffffffffffffffffffffffffff1673ffffffffffffffffffffffffffffffffffffffff16815260200190815260200160002054905081811015611236576040517f08c379a000000000000000000000000000000000000000000000000000000000815260040161122d90611feb565b60405180910390fd5b8181036000808673ffffffffffffffffffffffffffffffffffffffff1673ffffffffffffffffffffffffffffffffffffffff16815260200190815260200160002081905550816000808573ffffffffffffffffffffffffffffffffffffffff1673ffffffffffffffffffffffffffffffffffffffff16815260200190815260200160002060008282546112c9919061219d565b925050819055508273ffffffffffffffffffffffffffffffffffffffff168473ffffffffffffffffffffffffffffffffffffffff167fddf252ad1be2c89b69c2b068fc378daa952ba7f163c4a11628f55a4df523b3ef8460405161132d919061214b565b60405180910390a3611340848484611748565b50505050565b600073ffffffffffffffffffffffffffffffffffffffff168273ffffffffffffffffffffffffffffffffffffffff1614156113b6576040517f08c379a00000000000000000000000000000000000000000000000000000000081526004016113ad9061212b565b60405180910390fd5b6113c260008383611743565b80600260008282546113d4919061219d565b92505081905550806000808473ffffffffffffffffffffffffffffffffffffffff1673ffffffffffffffffffffffffffffffffffffffff1681526020019081526020016000206000828254611429919061219d565b925050819055508173ffffffffffffffffffffffffffffffffffffffff16600073ffffffffffffffffffffffffffffffffffffffff167fddf252ad1be2c89b69c2b068fc378daa952ba7f163c4a11628f55a4df523b3ef8360405161148e919061214b565b60405180910390a36114a260008383611748565b5050565b6000600560009054906101000a900473ffffffffffffffffffffffffffffffffffffffff16905081600560006101000a81548173ffffffffffffffffffffffffffffffffffffffff021916908373ffffffffffffffffffffffffffffffffffffffff1602179055508173ffffffffffffffffffffffffffffffffffffffff168173ffffffffffffffffffffffffffffffffffffffff167f8be0079c531659141344cd1fd0a4f28419497f9722a3daafe3b4186f6b6457e060405160405180910390a35050565b600073ffffffffffffffffffffffffffffffffffffffff168273ffffffffffffffffffffffffffffffffffffffff1614156115dc576040517f08c379a00000000000000000000000000000000000000000000000000000000081526004016115d39061208b565b60405180910390fd5b6115e882600083611743565b60008060008473ffffffffffffffffffffffffffffffffffffffff1673ffffffffffffffffffffffffffffffffffffffff1681526020019081526020016000205490508181101561166e576040517f08c379a000000000000000000000000000000000000000000000000000000000815260040161166590611f6b565b60405180910390fd5b8181036000808573ffffffffffffffffffffffffffffffffffffffff1673ffffffffffffffffffffffffffffffffffffffff1681526020019081526020016000208190555081600260008282546116c5919061224d565b92505081905550600073ffffffffffffffffffffffffffffffffffffffff168373ffffffffffffffffffffffffffffffffffffffff167fddf252ad1be2c89b69c2b068fc378daa952ba7f163c4a11628f55a4df523b3ef8460405161172a919061214b565b60405180910390a361173e83600084611748565b505050565b505050565b505050565b60008135905061175c816123aa565b92915050565b600081359050611771816123c1565b92915050565b60006020828403121561178957600080fd5b60006117978482850161174d565b91505092915050565b600080604083850312156117b357600080fd5b60006117c18582860161174d565b92505060206117d28582860161174d565b9150509250929050565b6000806000606084860312156117f157600080fd5b60006117ff8682870161174d565b93505060206118108682870161174d565b925050604061182186828701611762565b9150509250925092565b6000806040838503121561183e57600080fd5b600061184c8582860161174d565b925050602061185d85828601611762565b9150509250929050565b60006020828403121561187957600080fd5b600061188784828501611762565b91505092915050565b61189981612281565b82525050565b6118a881612293565b82525050565b60006118b982612181565b6118c3818561218c565b93506118d38185602086016122d6565b6118dc81612399565b840191505092915050565b60006118f460238361218c565b91507f45524332303a207472616e7366657220746f20746865207a65726f206164647260008301527f65737300000000000000000000000000000000000000000000000000000000006020830152604082019050919050565b600061195a60228361218c565b91507f45524332303a206275726e20616d6f756e7420657863656564732062616c616e60008301527f63650000000000000000000000000000000000000000000000000000000000006020830152604082019050919050565b60006119c060248361218c565b91507f49434f3a2066756e6374696f6e20776974686472617720696e76616c6964206960008301527f6e707574000000000000000000000000000000000000000000000000000000006020830152604082019050919050565b6000611a2660268361218c565b91507f4f776e61626c653a206e6577206f776e657220697320746865207a65726f206160008301527f64647265737300000000000000000000000000000000000000000000000000006020830152604082019050919050565b6000611a8c60228361218c565b91507f45524332303a20617070726f766520746f20746865207a65726f20616464726560008301527f73730000000000000000000000000000000000000000000000000000000000006020830152604082019050919050565b6000611af260268361218c565b91507f45524332303a207472616e7366657220616d6f756e742065786365656473206260008301527f616c616e636500000000000000000000000000000000000000000000000000006020830152604082019050919050565b6000611b5860288361218c565b91507f45524332303a207472616e7366657220616d6f756e742065786365656473206160008301527f6c6c6f77616e63650000000000000000000000000000000000000000000000006020830152604082019050919050565b6000611bbe60208361218c565b91507f4f776e61626c653a2063616c6c6572206973206e6f7420746865206f776e65726000830152602082019050919050565b6000611bfe601f8361218c565b91507f49434f3a2066756e6374696f6e2062757920696e76616c696420696e707574006000830152602082019050919050565b6000611c3e60228361218c565b91507f45524332303a2066756e6374696f6e206d696e7420696e76616c696420696e7060008301527f75740000000000000000000000000000000000000000000000000000000000006020830152604082019050919050565b6000611ca460218361218c565b91507f45524332303a206275726e2066726f6d20746865207a65726f2061646472657360008301527f73000000000000000000000000000000000000000000000000000000000000006020830152604082019050919050565b6000611d0a60258361218c565b91507f45524332303a207472616e736665722066726f6d20746865207a65726f20616460008301527f64726573730000000000000000000000000000000000000000000000000000006020830152604082019050919050565b6000611d7060228361218c565b91507f45524332303a2066756e6374696f6e206275726e20696e76616c696420696e7060008301527f75740000000000000000000000000000000000000000000000000000000000006020830152604082019050919050565b6000611dd660248361218c565b91507f45524332303a20617070726f76652066726f6d20746865207a65726f2061646460008301527f72657373000000000000000000000000000000000000000000000000000000006020830152604082019050919050565b6000611e3c60258361218c565b91507f45524332303a2064656372656173656420616c6c6f77616e63652062656c6f7760008301527f207a65726f0000000000000000000000000000000000000000000000000000006020830152604082019050919050565b6000611ea2601f8361218c565b91507f45524332303a206d696e7420746f20746865207a65726f2061646472657373006000830152602082019050919050565b611ede816122bf565b82525050565b611eed816122c9565b82525050565b6000602082019050611f086000830184611890565b92915050565b6000602082019050611f23600083018461189f565b92915050565b60006020820190508181036000830152611f4381846118ae565b905092915050565b60006020820190508181036000830152611f64816118e7565b9050919050565b60006020820190508181036000830152611f848161194d565b9050919050565b60006020820190508181036000830152611fa4816119b3565b9050919050565b60006020820190508181036000830152611fc481611a19565b9050919050565b60006020820190508181036000830152611fe481611a7f565b9050919050565b6000602082019050818103600083015261200481611ae5565b9050919050565b6000602082019050818103600083015261202481611b4b565b9050919050565b6000602082019050818103600083015261204481611bb1565b9050919050565b6000602082019050818103600083015261206481611bf1565b9050919050565b6000602082019050818103600083015261208481611c31565b9050919050565b600060208201905081810360008301526120a481611c97565b9050919050565b600060208201905081810360008301526120c481611cfd565b9050919050565b600060208201905081810360008301526120e481611d63565b9050919050565b6000602082019050818103600083015261210481611dc9565b9050919050565b6000602082019050818103600083015261212481611e2f565b9050919050565b6000602082019050818103600083015261214481611e95565b9050919050565b60006020820190506121606000830184611ed5565b92915050565b600060208201905061217b6000830184611ee4565b92915050565b600081519050919050565b600082825260208201905092915050565b60006121a8826122bf565b91506121b3836122bf565b9250827fffffffffffffffffffffffffffffffffffffffffffffffffffffffffffffffff038211156121e8576121e761233b565b5b828201905092915050565b60006121fe826122bf565b9150612209836122bf565b9250817fffffffffffffffffffffffffffffffffffffffffffffffffffffffffffffffff04831182151516156122425761224161233b565b5b828202905092915050565b6000612258826122bf565b9150612263836122bf565b9250828210156122765761227561233b565b5b828203905092915050565b600061228c8261229f565b9050919050565b60008115159050919050565b600073ffffffffffffffffffffffffffffffffffffffff82169050919050565b6000819050919050565b600060ff82169050919050565b60005b838110156122f45780820151818401526020810190506122d9565b83811115612303576000848401525b50505050565b6000600282049050600182168061232157607f821691505b602082108114156123355761233461236a565b5b50919050565b7f4e487b7100000000000000000000000000000000000000000000000000000000600052601160045260246000fd5b7f4e487b7100000000000000000000000000000000000000000000000000000000600052602260045260246000fd5b6000601f19601f8301169050919050565b6123b381612281565b81146123be57600080fd5b50565b6123ca816122bf565b81146123d557600080fd5b5056fea264697066735822122038038a322569323001a416913913de62321f4ed7747c35a8d21bb7d767c5a89164736f6c63430008000033",
  "immutableReferences": {},
  "source": "// SPDX-License-Identifier: MIT\n//\npragma solidity >=0.6.0 <=0.8.0;\n\n//\nimport \"../node_modules/@openzeppelin/contracts/token/ERC20/ERC20.sol\";\nimport \"../node_modules/@openzeppelin/contracts/access/Ownable.sol\";\n\n//ICOERC20,Ownable\ncontract ICO is ERC20, Ownable {\n\n    //ERC20\n    constructor() ERC20(\"XYCOIN\", \"XY\") {\n      _mint(msg.sender, 1000000*(10**uint256(decimals())));\n    }\n    \n    function mint(address account, uint256 amount) public onlyOwner returns (bool sucess) {\n      require(account != address(0) && amount != uint256(0), \"ERC20: function mint invalid input\");\n      _mint(account, amount);\n      return true;\n    }\n\n    //ERC20\n    function burn(address account, uint256 amount) public onlyOwner returns (bool success) {\n      require(account != address(0) && amount != uint256(0), \"ERC20: function burn invalid input\");\n      _burn(account, amount);\n      return true;\n    }\n\n    //ETH 1ether:1000coin\n    function buy() public payable returns(bool sucess) {\n      require(msg.sender.balance >= msg.value && msg.value != 0 ether, \"ICO: function buy invalid input\");\n      uint256 amount = msg.value * 1000;\n      _transfer(owner(), _msgSender(), amount);\n      return true;\n    }\n\n    //ether\n    function withdraw(uint256 amount) public onlyOwner returns (bool success) {\n      require(amount <= address(this).balance, \"ICO: function withdraw invalid input\");\n      payable(_msgSender()).transfer(amount);\n      return true;\n    }\n}\n",
  "sourcePath": "/Users/yuexiao/xiaoyue1/truffle-study/truffle-init/contracts/ICO.sol",
  "compiler": {
    "name": "solc",
    "version": "0.8.0+commit.c7dfd78e.Emscripten.clang"
  },
  "schemaVersion": "3.4.3",
  "updatedAt": "2021-10-05T13:28:21.989Z",
  "networkType": "ethereum",
  "devdoc": {
    "kind": "dev",
    "methods": {
      "allowance(address,address)": {
        "details": "See {IERC20-allowance}."
      },
      "approve(address,uint256)": {
        "details": "See {IERC20-approve}. Requirements: - `spender` cannot be the zero address."
      },
      "balanceOf(address)": {
        "details": "See {IERC20-balanceOf}."
      },
      "decimals()": {
        "details": "Returns the number of decimals used to get its user representation. For example, if `decimals` equals `2`, a balance of `505` tokens should be displayed to a user as `5.05` (`505 / 10 ** 2`). Tokens usually opt for a value of 18, imitating the relationship between Ether and Wei. This is the value {ERC20} uses, unless this function is overridden; NOTE: This information is only used for _display_ purposes: it in no way affects any of the arithmetic of the contract, including {IERC20-balanceOf} and {IERC20-transfer}."
      },
      "decreaseAllowance(address,uint256)": {
        "details": "Atomically decreases the allowance granted to `spender` by the caller. This is an alternative to {approve} that can be used as a mitigation for problems described in {IERC20-approve}. Emits an {Approval} event indicating the updated allowance. Requirements: - `spender` cannot be the zero address. - `spender` must have allowance for the caller of at least `subtractedValue`."
      },
      "increaseAllowance(address,uint256)": {
        "details": "Atomically increases the allowance granted to `spender` by the caller. This is an alternative to {approve} that can be used as a mitigation for problems described in {IERC20-approve}. Emits an {Approval} event indicating the updated allowance. Requirements: - `spender` cannot be the zero address."
      },
      "name()": {
        "details": "Returns the name of the token."
      },
      "owner()": {
        "details": "Returns the address of the current owner."
      },
      "renounceOwnership()": {
        "details": "Leaves the contract without owner. It will not be possible to call `onlyOwner` functions anymore. Can only be called by the current owner. NOTE: Renouncing ownership will leave the contract without an owner, thereby removing any functionality that is only available to the owner."
      },
      "symbol()": {
        "details": "Returns the symbol of the token, usually a shorter version of the name."
      },
      "totalSupply()": {
        "details": "See {IERC20-totalSupply}."
      },
      "transfer(address,uint256)": {
        "details": "See {IERC20-transfer}. Requirements: - `recipient` cannot be the zero address. - the caller must have a balance of at least `amount`."
      },
      "transferFrom(address,address,uint256)": {
        "details": "See {IERC20-transferFrom}. Emits an {Approval} event indicating the updated allowance. This is not required by the EIP. See the note at the beginning of {ERC20}. Requirements: - `sender` and `recipient` cannot be the zero address. - `sender` must have a balance of at least `amount`. - the caller must have allowance for ``sender``'s tokens of at least `amount`."
      },
      "transferOwnership(address)": {
        "details": "Transfers ownership of the contract to a new account (`newOwner`). Can only be called by the current owner."
      }
    },
    "version": 1
  },
  "userdoc": {
    "kind": "user",
    "methods": {},
    "version": 1
  }
}